:020000040000FA
:06000000DBEF05F0120029
:06002A000100EE0B0000D6
:080030006A000000010000005D
:08003800D9CFE6FFE1CFD9FFAB
:10004000020EE126DE6ADD6A900E946E260EAC6E1C
:10005000900EAB6E080EB86E020EB06E080EAF6E4C
:10006000C00EC76E220EC66E8270FA0EE66EB4EC3B
:1000700005F0E5528270FA0EE66EB4EC05F0E5523A
:100080008270FA0EE66EB4EC05F0E5528270FA0E5C
:10009000E66EB4EC05F0E5528270FA0EE66EB4EC52
:1000A00005F0E5528270FA0EE66EB4EC05F0E5520A
:1000B000827082EC04F0E66A040EE66E66EC04F0F0
:1000C000E552E55298D9E66A050EE66E66EC04F054
:1000D000E552E55290D93C0EE66E060EE66E66ECF1
:1000E00004F0E552E55287D9E66A070EE66E66EC43
:1000F00004F0E552E5527FD9E66A020EE66E66EC40
:1001000004F0E552E55277D9E66A030EE66E66EC36
:1001100004F0E552E5526FD9FA0EE66E080EE66E6F
:1001200066EC04F0E552E55266D90B0EE66E090E58
:10013000E66E66EC04F0E552E5525DD9E6680A0E1B
:10014000E66E66EC04F0E552E55255D91F0EE66EF8
:100150000B0EE66E66EC04F0E552E5524CD9FA0E51
:10016000E66E0E0EE66E66EC04F0E552E55243D9FB
:100170000B0EE66E0F0EE66E66EC04F0E552E552ED
:100180003AD9FA0EE66E0C0EE66E66EC04F0E55215
:10019000E55231D90B0EE66E0D0EE66E66EC04F0FC
:1001A000E552E55228D9FA0EE66EE66A66EC04F0EE
:1001B000E552E55220D90B0EE66E010EE66E66ECB6
:1001C00004F0E552E55217D90D0EE66E400EE66ECC
:1001D00066EC04F0E552E5520ED9F00EE66E420EE2
:1001E000E66E66EC04F0E552E55205D9400EE66E87
:1001F000430EE66E66EC04F0E552E552FCD8120EB2
:10020000E66E440EE66E66EC04F0E552E552F3D875
:10021000120EE66E460EE66E66EC04F0E552E5520E
:10022000EAD80C0EE66E470EE66E66EC04F0E55278
:10023000E552E1D8EE0EE66E4A0EE66E66EC04F08C
:10024000E552E552D8D8050EE66E4B0EE66E66EC2A
:1002500004F0E552E552CFD8E66A640EE66E66EC2D
:1002600004F0E552E552C7D8040EE66E650EE66E60
:1002700066EC04F0E552E552BED8A30EE66E620EBF
:10028000E66E66EC04F0E552E552B5D8550EE66E22
:10029000630EE66E66EC04F0E552E552ACD8550EFE
:1002A000E66E600EE66E66EC04F0E552E552A3D809
:1002B000550EE66E610EE66E66EC04F0E552E55210
:1002C0009AD8E66A390EE66E66EC04F0E552E5521D
:1002D00092D8C00EE66E380EE66E66EC04F0E5527B
:1002E000E55289D8700EE66E3B0EE66E140EE66E91
:1002F000D3EC04F0E552E552E552000EE66EE66AF4
:10030000E66AD3EC04F0E552E552E552E66A010EE6
:10031000E66E100EE66ED3EC04F0E552E552E552BF
:100320005FEC05F0040EE66EE66826EC05F0E5529B
:10033000E5525FEC05F038EC02F0C80EE66ECBEC4F
:1003400005F0E552C80EE66ECBEC05F0E552C80E9E
:10035000E66ECBEC05F0E552C80EE66ECBEC05F090
:10036000E552C80EE66ECBEC05F0E552C80EE66E1F
:10037000CBEC05F0E552C80EE66ECBEC05F0E5528D
:10038000C80EE66ECBEC05F0E552C80EE66ECBEC7F
:1003900005F0E552DE6ADD6ADECF00F0DDCF01F068
:1003A000D890015004E6640E005C000E01580BE288
:1003B000640EE66EE66A4ED8E552E552DF2A010E7B
:1003C00001E3DB2AE9D7827016D8FC0EE66E8AECD0
:1003D00004F0E552400B000803E20DD854EC03F0A2
:1003E000ACD7020EE15C02E2E16AE552E16EE55251
:1003F000E7CFD9FF1200C80EE66ECBEC05F0E55250
:100400001200D9CFE6FFE1CFD9FFFE0EDB50C96E57
:10041000C7A0FED7C95000D0E552E7CFD9FF1200E0
:10042000D9CFE6FFE1CFD9FFE6528294FE0EDB5032
:100430004009E66EE6DFE552FD0EDBCFE6FFE1DFC9
:10044000E552DF6E8284DF5000D0E552E552E7CFFF
:10045000D9FF1200D9CFE6FFE1CFD9FFFD0EDBCFE8
:10046000E6FFB4EC05F0E552E552E7CFD9FF120004
:100470000F0EE66EA9EC04F0E552E668A9EC04F074
:10048000E552E668A9EC04F0E552E668A9EC04F050
:10049000E552E668A9EC04F0E552E668A9EC04F040
:1004A000E552E668A9EC04F0E552E66AA9EC04F02E
:1004B000E552040EE66EA9EC04F0E552A30EE66EDA
:1004C000A9EC04F0E552550EE66EA9EC04F0E552F5
:1004D000550EE66EA9EC04F0E552550EE66EA9EC59
:1004E00004F0E552080EE66EA9EC04F0E552060EA3
:1004F000E66EA9EC04F0E552E66AA9EC04F0E552D8
:10050000010EE66EA9EC04F0E552080EE66EA9ECC9
:1005100004F0E552E66AA9EC04F0E552060EE66E38
:10052000A9EC04F0E552040EE66EA9EC04F0E552E5
:10053000E66AA9EC04F0E552010EE66EA9EC04F0BF
:10054000E552E66AA9EC04F0E552040EE66EA9EC69
:1005500004F0E552A30EE66EA9EC04F0E552550E48
:10056000E66EA9EC04F0E552550EE66EA9EC04F037
:10057000E552550EE66EA9EC04F0E552C00EE66EAB
:10058000A9EC04F0E552A80EE66EA9EC04F0E552E1
:10059000020EE66EA9EC04F0E552630EE66EA9ECDD
:1005A00004F0E552E668A9EC04F0E552E668A9EC2F
:1005B00004F0E552E668A9EC04F0E552E668A9EC1F
:1005C00004F0E552E668A9EC04F0E552E668A9EC0F
:1005D00004F0E552C00EE66EA9EC04F0E552A80E58
:1005E000E66EA9EC04F0E552020EE66EA9EC04F00A
:1005F000E552170EE66EA9EC04F0E552E66AA9ECA6
:1006000004F0E552E66AA9EC04F0E552E66AA9ECCA
:1006100004F0E552E66AA9EC04F0E552E66AA9ECBA
:1006200004F0E552E66AA9EC04F0E552E66AA9ECAA
:1006300004F0E552E66AA9EC04F0E552E66AA9EC9A
:1006400004F0E552E66AA9EC04F0E552E66AA9EC8A
:1006500004F0E552E66AA9EC04F0E552E66AA9EC7A
:1006600004F0E552E66AA9EC04F0E552E66AA9EC6A
:1006700004F0E552E66AA9EC04F0E552E66AA9EC5A
:1006800004F0E552E66AA9EC04F0E5525FEC05F0EF
:100690008284080EE66EE66826EC05F0E552E55227
:0806A0005FEC05F082841200FA
:0806A800D9CFE6FFE1CFD9FF35
:1006B000070EE126020EDB6AAA0EE66EE9EC05F0F3
:1006C000E552390EE66E8AEC04F0E552E66EE9EC8E
:1006D00005F0E5525FEC05F0BB0EE66EE9EC05F0C7
:1006E000E5525FEC05F00D0EE66E8AEC04F0E55283
:1006F000E66EE9EC05F0E5520C0EE66E8AEC04F0CD
:10070000E552E66EE9EC05F0E5525FEC05F0CC0E43
:10071000E66EE9EC05F0E5525FEC05F00F0EE66ED3
:100720008AEC04F0E552E66EE9EC05F0E5520E0EB7
:10073000E66E8AEC04F0E552E66EE9EC05F0E5526F
:100740005FEC05F0DD0EE66EE9EC05F0E5525FECDE
:1007500005F0010EE66E8AEC04F0E552E66EE9EC77
:1007600005F0E552E66A8AEC04F0E552E66EE9EC43
:1007700005F0E5525FEC05F0030EDB6A010EF36E47
:10078000040EF3CFDBFF0E0EF36E050EF3CFDBFF8F
:100790000F0EF36E060EF3CFDBFF050EDBCF02F07C
:1007A000060EDBCF03F0030EDB50025C006E040E7E
:1007B000DB500358016E020E00C0DBFF5FEC05F05A
:1007C000CD0EE66EE9EC05F0E552020EDBCFE6FF5A
:1007D000E9EC05F0E5525FEC05F0BCEC04F0E76EE7
:1007E000010EE7CFDBFFBCEC04F0DF6E5FEC05F041
:1007F000AB0EE66EE9EC05F0E5525FEC05F0DFCFFD
:10080000E6FFE9EC05F0E552010EDBCFE6FFE9EC8F
:1008100005F0E5525FEC05F0EE0EE66EE9EC05F052
:10082000E552020EDB5000080BE2BCEC04F0E66E71
:10083000E9EC05F0E5525FEC05F0020EDB06F1D7BE
:10084000EF0EE66EE9EC05F0E5525FEC05F05FECCB
:1008500005F0400EE66EFE0EE66E26EC05F0E55263
:10086000E552AC0EE66EE9EC05F0E552390EE66EA7
:100870008AEC04F0E552E66EE9EC05F0E552070E6D
:10088000E15C02E2E16AE552E16EE552E7CFD9FFB1
:100890001200D9CFE6FFE1CFD9FF020EE126FE0E0E
:1008A000E66E8AEC04F0E552DF6E5FEC05F0DFCF18
:1008B000E6FFE9EC05F0E552020EE15C02E2E16AD6
:0C08C000E552E16EE552E7CFD9FF1200CF
:0408CC00D9CFE6FF9B
:1008D000E1CFD9FFFE0EDB50E00BE66E8ED8E5527D
:1008E0008294FE0EDB501F0B4009E66ECBD8E5521A
:1008F000FD0EDBCFE6FFC6D8E5528284E552E7CF96
:10090000D9FF12008294E668BDD8E5528284D7D818
:10091000D6D81200D9CFE6FFE1CFD9FFE652FE0EBE
:10092000DB50E00BE66E69D8E5528294FE0EDB5098
:100930001F0BE66EA7D8E552550EE66EA3D8E5521A
:10094000DF6E8284DF5000D0E552E552E7CFD9FF59
:100950001200D9CFE6FFE1CFD9FF82947A0EE66E7E
:1009600091D8E552FE0EDBCFE6FF8CD8E5528284AB
:10097000E552E7CFD9FF1200D9CFE6FFE1CFD9FF8B
:10098000E65282943A0EE66E7DD8E552550EE66E3A
:1009900079D8E552DF6E8284DF5000D0E552E5520F
:1009A000E7CFD9FF1200D9CFE6FFE1CFD9FFFE0E86
:1009B000DBCFE6FF540EE66E89DFE552E5527FD8C5
:1009C000FC0EDBCFE6FF560EE66E80DFE552E55209
:1009D00076D8FC0EDBCF00F0FD0EDBCF01F001C0BE
:1009E00000F0016A0050E66E570EE66E6FDFE552CA
:1009F000E552E552E7CFD9FF1200D9CFE6FFE1CFAC
:100A0000D9FFFE0EDB5000016A5D02E0000E01D04E
:100A1000010E006EFE0EDB50E00802E0000E01D079
:100A2000010E00100FE1FE0EDB50E00BE838E8404D
:100A30000409E66EE6684ADFE552E552FE0EDBCFBA
:100A40006AF03DD8E552E7CFD9FF1200D9CFE6FFD3
:100A5000E1CFD9FFFE0EDB50E00BE66ECEDFE552B4
:100A60008294FE0EDB501F0B8009E66E0BD8E55218
:100A7000FD0EDBCFE6FF06D8E5528284E552E7CFD4
:100A8000D9FF1200D9CFE6FFE1CFD9FFFE0EDB5030
:100A9000C96EC7A0FED7C95000D0E552E7CFD9FF35
:100AA0001200D9CFE6FFE1CFD9FFFE0EDBCFE6FF84
:100AB000E9DFE55204D8E552E7CFD9FF1200C80EAE
:0A0AC000E66ECBEC05F0E5521200E3
:060ACA002A0EF66E000E7C
:100AD000F76E000EF86E00010900F550656F090011
:100AE000F550666F03E1656701D03DD00900F55010
:100AF000606F0900F550616F0900F550626F0900E1
:100B00000900F550E96E0900F550EA6E0900090088
:100B10000900F550636F0900F550646F0900090082
:100B2000F6CF67F0F7CF68F0F8CF69F060C0F6FF56
:100B300061C0F7FF62C0F8FF0001635302E1645334
:100B400007E00900F550EE6E6307F8E26407F9D795
:100B500067C0F6FF68C0F7FF69C0F8FF00016507CE
:080B6000000E665BBFD7120016
:080B6800FF0EE350076EEF0ED3
:100B700001D0F30EE76EE72EBBEF05F00C0E066E0C
:100B8000E76AE72EC1EF05F0062EC0EF05F0072E4D
:060B9000B9EF05F01200B0
:0A0B9600FF0EE350076E480E01D079
:100BA0004C0EE76EE72EFED7E76AE72EFED7072E3C
:060BB000F7D7000012005F
:0A0BB6001CEE00F02CEE00F0F86ACF
:100BC000059C65EC05F0F6EC05F01CEC00F0FBD79D
:020BD000120011
:0E0BD200D9CFE6FFE1CFD9FFFE0EDB50AD6EAE
:0C0BE000ACB2FED7E552E7CFD9FF1200FF
:020BEC001200F5
:010BEE000105
:020000040030CA
:0100010002FC
:0100020019E4
:010003001EDE
:0100050000FA
:01000600C435
:010008003FB8
:01000900C036
:01000A003FB6
:01000B00E014
:01000C003FB4
:01000D0040B2
:00000001FF
